:020000040800F2
:100000000006002045010008551F0008651700087C
:10001000511F0008690C000855300008000000005E
:100020000000000000000000000000006523000840
:10003000F10F0008000000001D200008FD2400084A
:100040005F0100085F0100085F0100085F01000810
:100050005F0100085F0100085F0100085F01000800
:100060005F0100085F0100085F0100085F010008F0
:100070005F0100085F0100085F0100085F010008E0
:100080005F0100085F0100085F0100085F010008D0
:100090005F0100085F0100085F0100085F010008C0
:1000A0005F0100085F0100085F0100085F010008B0
:1000B0005F010008612500085F0100085F0100087A
:1000C0005F0100085F0100085F0100085F01000890
:1000D0005F010008952E00085F010008C52E00088A
:1000E0005F0100085F0100085F0100085F01000870
:1000F0005F0100085F0100085F0100085F01000860
:100100005F0100085F0100085F0100085F0100084F
:100110005F0100085F0100085F0100085F0100083F
:100120005F0100085F0100085F0100085F0100082F
:10013000DFF80CD000F0E4FB004800472D36000843
:10014000000600200648804706480047FEE7FEE715
:10015000FEE7FEE7FEE7FEE7FEE7FEE7FEE7FEE777
:100160000125000831010008D2B201E000F8012B9E
:10017000491EFBD270470022F6E710B513460A4627
:1001800004461946FFF7F0FF204610BD421C10F848
:10019000011B0029FBD1801A7047034611F8012B7F
:1001A00000F8012B002AF9D118467047F0B480EA14
:1001B0000102D40F4200B2EB410F02D202460846C0
:1001C00011464A0042D0C30DDDB2C1F3C752AD1A89
:1001D000202D35DAC1F3160141F4000204B1524278
:1001E000C5F1200602FA06F12A411044B3EBD05FB4
:1001F00023D0C4B1012DA0EBC35009DCF0BC4FF0FB
:10020000004202EAC352DBB200F5000000F097B9E9
:10021000400000F1807000EBC350A0F1807040EA14
:10022000D170490009E0490841EAC071A0EBC35010
:1002300000F50000400800EBC350F0BC00F076B9B8
:100240006142012202EB4101001BF6E7F0BC70475E
:1002500081F00041AAE780F00040A7E780EA0102B0
:1002600010B502F00043400022D04A001FD0010E1A
:1002700001EB1261C0F35600C2F3560240F40000D5
:1002800042F40002A0FB022000047F39140400D0D5
:10029000401C50EA124001D44000491EC2B20C0674
:1002A00004EBD010401C4008802A02D003E000205C
:1002B00010BD20F00100002900DA0020184310BD15
:1002C00030B480EA010202F0004530F0004221F033
:1002D000004013D090B1C30DD40DC2F31601C0F38A
:1002E0001600E41A41F4000140F400027D3491420A
:1002F00001D3641C00E04900002C02DA30BC00206D
:1003000070474FF400000023914201D3891A034340
:1003100040084FEA4101F7D151B1914202D14FF06B
:10032000004105E002D24FF0010101E06FF0010150
:1003300003EBC450284430BC00F0F8B82DE9FE4F60
:1003400081EA030404F0004421F0004100944FF0DE
:10035000000B23F0004350EA01045ED052EA03048C
:100360005BD0C3F30A54C1F30A552C44A4F2F3340E
:100370000194A0FB0254C1F3130141F48011C3F3B3
:10038000130343F4801301FB024400FB034E840A71
:10039000970A44EA815447EA8357A4FB0768029509
:1003A0008D0A05FB07854FEA932C04FB0C542705A7
:1003B000029D4FEA065847EA1637B5EB08056EEB83
:1003C000070C870E920E47EA811742EA8312A7FBB9
:1003D0000201B6EB0B0164EB00042B0D43EA0C3376
:1003E0005E1844EB1C50DA465146E7FB0201C5F3A8
:1003F00013044FEA0B3343EA14534FEA0432019CCF
:1004000043EA0603A4F10C040294009CCDE900B475
:1004100000F0D2F803B0BDE8F08F00200146F9E704
:1004200096230022114600F08AB820F00040C10D4A
:10043000C0F3160040F400007F2901DA0020704765
:10044000962903DCC1F19601C8407047963988406F
:100450007047C1F30A5210B5C1F3130140F2FF33E4
:1004600041F480119A4201DA002010BD40F233437A
:100470009A42A2F2334203DC524200F047F810BD28
:10048000904010BD00F0004230F000400AD0C10D95
:1004900001F56071C0F3160042EA0151C20840073D
:1004A0001143704700200146704701F0004330B40B
:1004B00021F0004150EA010206D00A0DA2F5607257
:1004C000C1F31301002A02DC30BC00207047440F46
:1004D00044EAC104C100E01830BC00EBC25000F097
:1004E00025B80000002801DBC0F10040002901DB35
:1004F000C1F1004181427047002801DBC0F100409A
:10050000002901DBC1F1004188427047202A04DB49
:10051000203A21FA02F00021704721FA02F3D0407C
:10052000C2F1200291400843194670470029A8BF34
:100530007047401C490008BF20F00100704710B40C
:10054000B0FA80FC00FA0CF050EA010404BF10BCC1
:10055000704749B1CCF1200421FA04F411FA0CF1EE
:1005600018BF012121430843A3EB0C01CB1D4FEA27
:1005700000614FEA102042BF002010BC704700EB22
:10058000C35010440029A4BF10BC7047401C490050
:1005900008BF20F0010010BC704710B5141E73F1A5
:1005A000000408DA401C41F1000192185B411A4333
:1005B00001D120F0010010BD2DE9F04D92469B467F
:1005C00011B1B1FA81F202E0B0FA80F22032904625
:1005D00000F0A8F904460F4640EA0A0041EA0B0180
:1005E00053465A46084313D0114653EA010019D026
:1005F000C8F140025046FFF789FF05460E465046B7
:100600005946424600F08EF9084305D0012004E027
:1006100020463946BDE8F08D0020054346EAE076E5
:100620002C4337430A986305E40AA0EB0800002234
:10063000FD0A44EA47540A3002D500200146E9E7A2
:10064000010510196941DDE9084500196941BDE856
:10065000F04DA2E72DE9FE4F804681EA0300C00F6E
:100660000C46009021F0004123F00045B8EB020059
:10067000A94105D24046214690461C460B460246FB
:1006800023F00040104347D0270DC7F30A00C3F3FF
:100690000A510290401A019040286BDAC3F313000C
:1006A00040F4801B0098924620B10023D2EB030A4D
:1006B00063EB0B0B01985946C0F14002504600F025
:1006C00031F906460D4650465946019A00F039F96F
:1006D00010EB08006141002487EA115284EAE773B5
:1006E0001A4340D0009A62B3019A012A4FEA075296
:1006F00015DC001B61EB02014FF0004202EA0752D9
:10070000CDE90042001C41F5801132462B46FFF72F
:1007100053FF03B0BDE8F08F40462146F9E7001BC8
:1007200061EB0201001C41F5801300185B412018A9
:10073000A2F5001747EB030140EAD570B6196D41E9
:1007400011E06D084FEA360645EAC0754FEA0752D8
:10075000001B61EB0201001C41F5801149084FEAC2
:1007600030000019514132462B4603B0BDE8F04F2E
:10077000FFF713BF0098012240000023D0EB0202D4
:1007800063EBE073009821464FEAE074B8EB000099
:1007900061EB0401E9E783F000435BE781F000418E
:1007A00058E72DE9F04D81EA030404F0004B21F0F5
:1007B000004514464FF0000A23F0004150EA0502BC
:1007C00020D054EA01021DD0C5F30A570246C5F3F2
:1007D0001303C1F31300C1F30A5640F4801543F428
:1007E0008013A7EB0608101BD64608F2FD3873EB02
:1007F000050002D308F1010801E092185B41B8F14D
:10080000000F03DA00200146BDE8F08D00204FF410
:100810008011064684460EE0171B73EB050705D3CF
:10082000121B63EB050306434CEA010C49084FEA2F
:10083000300092185B4150EA0107EDD152EA030003
:1008400012D082EA040083EA0501084305D0101B98
:10085000AB4106D20122002306E000224FF0004304
:1008600002E06FF0010253101AEB06004CEB085146
:1008700010EB0A0041EB0B01BDE8F04DFFF78DBE18
:1008800070B521F0004303430CD0C1F30A55002496
:10089000D5EB040564EB0403D617AD1AB34102DBB4
:1008A0000020014670BD201841EB025170BD0EB50D
:1008B000C10F80EAE0700844CA07002140F23343C8
:1008C0008DE80E000A460B46FFF776FE03B000BD2A
:1008D00030B5041E71F1000404DB4FF000444042C7
:1008E00064EB0101141E73F1000405DB1C464FF09C
:1008F0000043524263EB04038B4208BF824230BD87
:10090000064C074D06E0E06840F0010394E807005C
:1009100098471034AC42F6D3FFF70EFC34D80008E9
:1009200054D80008202A04DB203A00FA02F1002003
:1009300070479140C2F1200320FA03F3194390401D
:100940007047202A06DBCB17203A41FA02F043EA2F
:10095000E07306E041FA02F3D040C2F12002914078
:10096000084319467047000000B591B03A4800F0BE
:100970007BFA3A4806903A480790002008900320F6
:10098000099000200A9080200B9040000C9080007D
:100990000D9020200E9000020F900020109006A9CC
:1009A0002D4800F007FB01212B4800F051FA0020F0
:1009B000019001208DF808008DF809004FF46020A7
:1009C00003900020049003208DF8140001A923480F
:1009D0004C3800F071F84FF4804001F0B5FB05236E
:1009E000012200211D484C3800F08EF80523022218
:1009F00001211A484C3800F087F805230322022110
:100A000016484C3800F080F8012114484C3800F0AA
:100A100034F8012111484C3800F024F80F484C38C4
:100A200000F0CEF800BF0D484C3800F03BF800282D
:100A3000F9D10A484C3800F0D3F800BF07484C38C9
:100A400000F026F80028F9D1012104484C3800F0C4
:100A5000BCF811B000BD0000080002404C24014069
:100A60004400002021B1826842F00102826003E06C
:100A7000826822F001028260704721B1826842F4EC
:100A80008072826003E0826822F480728260704724
:100A9000014600208A6802F004020AB1012000E049
:100AA00000207047014600208A6802F008020AB15F
:100AB000012000E00020704730B5024600200023EE
:100AC00050680F4C20400D790C6844EA05242043FF
:100AD000506090680B4C2040D1E902542C434D7972
:100AE00044EA450420439060D06A20F470000C7CF6
:100AF000641EE4B2234340EA0350D06230BD0000DC
:100B0000FFFEF0FFFDF7F1FFF0B504460D460020B3
:100B10000021092D11DDE068A5F10A0606EB460764
:100B2000072606FA07F18843A5F10A0606EB4606F2
:100B300003FA06F10843E0600CE0206905EB450785
:100B4000072606FA07F1884305EB450603FA06F186
:100B500008432061072A0FDA606B561E06EB8607F2
:100B60001F2606FA07F18843561E06EB860605FA8D
:100B700006F10843606322E00D2A0FDA206BD61FCE
:100B800006EB86071F2606FA07F18843D61F06EBF9
:100B9000860605FA06F10843206310E0E06AA2F138
:100BA0000D0606EB86071F2606FA07F18843A2F119
:100BB0000D0606EB860605FA06F10843E062F0BD75
:100BC000816841F008018160704721B1826842F478
:100BD000A002826003E0826822F4A0028260704773
:100BE000816841F0040181607047000010B5002465
:100BF00017E0012204211B4800F0AFFD962000F011
:100C000004FA00220421174800F0A7FD962000F006
:100C1000FCF900224FF48041124800F09EFD601C58
:100C200084B2C82CE5DB002413E0012204210D4826
:100C300000F093FD4FF4C87000F0E7F900220421A2
:100C4000084800F08AFD4FF4C87000F0DEF9601C1F
:100C500084B2962CE9DB01229103024800F07DFD6D
:100C600010BD00000010014000BFFEE770B5044653
:100C70000025012C01D100BF05E000224FF4807156
:100C8000194800F06AFD0A2000F0B3F90020174966
:100C900008801749088016E04FF48071154800F06D
:100CA0004FFD01280FD16D1C05E011480088B0F5FB
:100CB000FA7F00DD06E04FF480710E4800F040FD41
:100CC0000128F2D000BF0A480088B0F5FA7FE3DBC4
:100CD000012C02D108494D8004E01CB900200649CE
:100CE00048800D8070BD00000010014024040040C9
:100CF0002000002000080140400000202DE9F041C4
:100D000039484088282840DD37494888FFF788FB64
:100D1000064635490888FFF783FB07463146FFF74B
:100D2000CFFA054629462846FFF798FA05464FF0C0
:100D30007E512846FFF7D6FB06D229464FF07E505B
:100D4000FFF786FA054605E04FF07E512846FFF78B
:100D50007FFA054629462548FFF780FA07462449C9
:100D6000FFF77CFA0646FFF760FB04466421B4FBFC
:100D7000F1F201FB1240052804D36420B4FBF0F02B
:100D8000441C02E06420B4FBF0F41A490C801A49B8
:100D90000889FFF745FB054618492846FFF790FAF2
:100DA00080462946FFF757FA064612490888FFF79A
:100DB00037FB07463146FFF795FB02D25520BDE8C9
:100DC000F08129462846FFF7F1F9064609490888C7
:100DD000FFF726FB07463146FFF78EFB01D2AA201C
:100DE000EDE71120EBE70000400000200000C842C2
:100DF0000000FA443C000020500000200000204188
:100E000070B505460F48408901280BD000200E49D7
:100E10000880488000224FF480710C4800F09DFC4F
:100E2000002070BD2846FFF721FF00224FF480719B
:100E3000064800F092FCFFF761FF04460248448038
:100E40002046EEE7500000203C000020001001404A
:100E500021B1026842F00102026004E002684FF62C
:100E6000FE731A400260704701684FF6FE7211402F
:100E700001600021016041608160C1604B4988428E
:100E800008D14A490839496841F00F01474A083AF0
:100E900051608AE045491431884208D143490839F4
:100EA000496841F0F001414A083A51607DE03F490C
:100EB0002831884208D13D490839496841F47061B8
:100EC0003A4A083A516070E038493C31884208D1CA
:100ED00036490839496841F47041344A083A51604A
:100EE00063E032495031884208D1304908394968B5
:100EF00041F470212D4A083A516056E02B49643183
:100F0000884208D129490839496841F47001274AC3
:100F1000083A516049E025497831884208D123498F
:100F20000839496841F07061204A083A51603CE054
:100F30001F49884206D1011F096841F00F01021FB5
:100F4000116032E01A491431884208D11849091F4A
:100F5000096841F0F001164A121F116025E014499A
:100F60002831884208D11249091F096841F470618B
:100F70000F4A121F116018E00D493C31884208D118
:100F80000B49091F096841F47041094A121F116099
:100F90000BE007495031884207D10549091F09680C
:100FA00041F47021024A121F11607047080002408C
:100FB0000804024010B50022026847F6F0739A4315
:100FC0000C6A8B6823430C6923434C6923438C6967
:100FD0002343CC6923434C6A23438C6A23431A433B
:100FE0000260CB6843600B6883604B68C36010BDD0
:100FF000704700B5034605E04FF47A7000F005F83D
:10100000581E83B2002BF7DC00BD07E00C2101E085
:101010004A1ED1B20029FBDC421E90B20028F5DC4A
:10102000704700002DE9FF4F85B0824691461D466E
:101030000026B04600200290B9F10C0F09D0B9F19A
:10104000100F0BD0B9F1180F0DD0B9F1200F14D13A
:101050000EE0234802901A240A270EE0214802904D
:1010600022240C2709E0204802904A24142704E097
:101070001E4802908224192700BF00BF29E0A85D06
:10108000202820DBA85D7E281DDCA85DA0F12008BB
:10109000029808FB0408C8F3074BC8F30720049024
:1010A00008F0FF000390124B00945846DDE903213D
:1010B00002F0E2F8139809F0FF0200905046129BEC
:1010C000069900F017F8701CC6B20AEB07001FFA69
:1010D00080FAA85D0028D2DC09B0BDE8F08F0000DE
:1010E00000C41D0080E51D00D0221E00D0991E0006
:1010F000880000202DE9FF4F81B081468A46934643
:1011000000200090BBF10C0F09D0BBF1100F0AD0EA
:10111000BBF1180F0BD0BBF1200F10D10BE01A253B
:101120000A240C260BE022250C24102607E04A2571
:101130001424182603E082251924202600BF00BFAE
:101140000AEB0600401E83B209EB0400401E82B287
:101150005146484600F06EFB022727E04FF000089A
:101160001EE01548C05D802141FA08F1084018B121
:10117000049800F053FD02E00E9800F04FFD009837
:10118000401CC0B20090009890FBF4F104FB1100E9
:1011900010B90020009006E008F1010000F0FF08FF
:1011A000B8F1080FDDDB00BF781CC7B2AF42D5DB5A
:1011B00005B0BDE8F08F0000880000202DE9FF5F3A
:1011C00081468A4617464FF0000B0C2F06D0102F91
:1011D00007D0182F08D0202F0CD108E018250C2498
:1011E00008E02025102405E04825182402E0802589
:1011F000202400BF00BF0AEB0400401E83B209EBAD
:101200000400401E82B25146484600F013FB0026FF
:1012100026E04FF000081DE01348805D802141FA70
:1012200008F1084018B1039800F0F8FC02E00E98AD
:1012300000F0F4FC0BF1010000F0FF0B9BFBF7F05A
:1012400007FB10B010B94FF0000B06E008F10100E9
:1012500000F0FF08B8F1080FDEDB00BF701CC6B25B
:10126000AE42D6DBBDE8FF9F880000202DE9FF4F8E
:1012700083B01C46002500260020029005980C280B
:1012800006D010280AD018280ED0202818D111E036
:101290000020029018274FF00C0811E03A48029005
:1012A00020274FF010080BE03848029048274FF0F5
:1012B000180805E03648029080274FF0200800BF4C
:1012C00000BF5BE0605DA12827DB605DA92824DC0E
:1012D000681C205CA12820DB605DA1385E2100FB3A
:1012E00001F6681C205CA1380644029806FB07063C
:1012F000C6F30749C6F3072A06F0FF0B254B5A46EB
:1013000051464846009701F0B7FF11980090109B96
:1013100003A807C8FFF752FF2AE0605DB02827DB6B
:10132000605DF72824DC681C205CA12820DB605D60
:10133000B0385E2100FB01F6681C205C00F2AD2095
:101340000644029806FB0706C6F30749C6F3072AB8
:1013500006F0FF0B0F4B5A4651464846009701F0E6
:101360008BFF11980090109B03A807C8FFF726FF7A
:101370000398404480B20390A81CC5B2605D002869
:10138000A0DC07B0BDE8F08FD0C902009081060054
:1013900000DF0E008800002008B50121794800F028
:1013A00087F94FF44050ADF8000003208DF802009B
:1013B00010208DF803006946734800F0EDF84FF4F3
:1013C0004040ADF8000069466F4800F0E5F84FF482
:1013D0008070ADF8000069466C4800F0DDF88020B0
:1013E000ADF800006946694800F0D6F84FF4806017
:1013F000ADF800006946644800F0CEF80120ADF871
:1014000000006946604800F0C7F83020ADF80000E1
:1014100069465E4800F0C0F8C020ADF8000069469B
:101420005B4800F0B9F80220ADF800006946564864
:1014300000F0B2F81020ADF800006946544800F002
:10144000ABF82020ADF800006946514800F0A4F840
:101450000420ADF8000069464C4800F09DF84FF4B8
:101460000040ADF800006946484800F095F84FF498
:101470008040ADF800006946444800F08DF84FF414
:101480000050ADF800006946404800F085F8802023
:10149000ADF8000048208DF8030003208DF802000D
:1014A0006946394800F078F803208DF802001020D2
:1014B0008DF803000420ADF800006946354800F0BF
:1014C0006BF83820ADF8000069462F4800F064F84A
:1014D0004FF45070ADF8000069462B4800F05CF8FE
:1014E0004FF48070ADF8000048208DF80300694685
:1014F000274800F051F84FF40070ADF80000482084
:101500008DF803006946214800F046F80820ADF840
:10151000000048208DF8030069461D4800F03CF8A3
:101520000120ADF8000028208DF803006946174817
:1015300000F032F80720ADF8000000208DF803001D
:101540006946134800F028F84FF40070ADF8000029
:1015500018208DF8030003208DF8020069460C481E
:1015600000F01AF84FF48060ADF8000003208DF809
:10157000020004208DF803006946054800F00CF8CD
:1015800008BD000000023000000C014000100140C6
:1015900000080140001401402DE9F04102460025F9
:1015A0000026002000230024002791F803C00CF03F
:1015B0000F0591F803C00CF0100CBCF1000F03D024
:1015C00091F802C04CEA050591F800C0BCF1000F8B
:1015D00031D0146800202BE04FF0010C0CFA00F31E
:1015E000B1F800C00CEA03069E4220D183004FF000
:1015F0000F0C0CFA03F7BC4305FA03FC4CEA040495
:1016000091F803C0BCF1280F06D14FF0010C0CFA81
:1016100000FCC2F814C00AE091F803C0BCF1480F06
:1016200005D14FF0010C0CFA00FCC2F810C0401CB0
:101630000828D1D31460B1F800C0BCF1FF0F34DD2D
:10164000546800202EE000F1080C4FF0010808FA61
:101650000CF3B1F800C00CEA03069E4221D18300CE
:101660004FF00F0C0CFA03F7BC4305FA03FC4CEAED
:10167000040491F803C0BCF1280F05D100F1080C57
:1016800008FA0CF8C2F8148091F803C0BCF1480FB6
:1016900007D100F1080C4FF0010808FA0CF8C2F865
:1016A0001080401C0828CED35460BDE8F0810000B3
:1016B000F0B50A46002300240021002500F0004672
:1016C000B6F1004F02D11D4EF16901E01B4E716869
:1016D000C0F3034583B200F44016B6F5401F08D1AD
:1016E00021F07061154E766826F07066134F7E60AB
:1016F00012E000F48016B6F5801F06D1032606FA24
:1017000005F4A14341F0706106E0460D360103FA8D
:1017100006F6B14341F0706122B1460D360103FA7D
:1017200006F6314300F00046B6F1004F02D1034EF9
:10173000F16101E0014E7160F0BD00000000014068
:101740000246002093680B400BB1012000E000200E
:10175000704741617047016170470AB1016100E063
:101760004161704700BFFEE710B54FF480511A4841
:10177000FFF7EFFF4FF400511748FFF7EAFF4FF470
:1017800000411548FFF7E5FF4FF480411248FFF78D
:10179000E0FF002280211148FFF7DFFF01229102C4
:1017A0000D48FFF7DAFF00224FF480710B48FFF776
:1017B000D4FF0122D1030948FFF7CFFF0122910393
:1017C0000648FFF7CAFF012251030448FFF7C5FF8F
:1017D000FFF70CFA10BD0000000C014000100140A2
:1017E00010B500F06FFCFFF7D7FDFFF7BDF801F073
:1017F0002FFB00F0B0FBFFF7B7FF10BD10B50121C4
:101800000B48FFF79DFF88B10A20FFF7F2FB01218B
:101810000748FFF795FF48B10A20FFF7EAFB0121CF
:101820000348FFF78DFF08B1012010BD0020FCE741
:10183000001001402DE9F04107460C4615461E46B2
:101840002A2000F0F5F9384600F0E8F9284600F0C3
:10185000E5F92B2000F0ECF9204600F0DFF93046E6
:1018600000F0DCF92C2000F0E3F9BDE8F081000085
:101870001CB54AF2516040F2CF113FA31022CDE9CE
:10188000001043214820FFF7CDFB4AF2516040F29F
:10189000CF1139A31022CDE900104321E820FFF732
:1018A000C1FB4AF2516040F2CF1133A31022CDE9BF
:1018B000001054214820FFF7B5FB4AF2516040F276
:1018C000CF112FA31022CDE900105421E820FFF7FB
:1018D000A9FB4AF2516040F2CF1128A31022CDE9B2
:1018E000001065214820FFF79DFB4AF2516040F24D
:1018F000CF1122A31022CDE9001065216120FFF74E
:1019000091FB4AF2516040F2CF111BA31022CDE9A6
:1019100000106521E820FFF785FB4AF251604FF483
:10192000784118A31022CDE9001076214820FFF756
:1019300079FB4AF25160DC234FF49672A0210090AB
:10194000282000F045F84AF251604FF478410FA387
:101950001822CDE90010A0212E20FFF787FC4AF2C3
:1019600051604FF478410EA31822CDE90010B9213F
:101970002E20FFF77BFC1CBD2020202020202000F3
:10198000202020202020202000000000BBB6D3AD66
:10199000CAB9D3C3B1BEB9ABCBBEBBFAD0BE00008F
:1019A000CAB9D3C3D6D0C7EBD7A2D2E2B7C0BEB2B2
:1019B000B5E7000070B504460D4616462B46224694
:1019C00029462046FFF736FF304600F027F970BD64
:1019D0002DE9F04706460F4614461D46DDF820A0C7
:1019E000681E83B2601E82B239463046FFF722FF7E
:1019F000B8460EE0B14606E0504600F00FF909F196
:101A000001001FFA80F9A145F6DB08F101001FFA79
:101A100080F8A845EEDBBDE8F08700002DE9FF5F08
:101A200006468A4690469B460F9D002002900096EF
:101A3000284605EBD071C1F347042046E21704EBBA
:101A40005272D2102146E31704EB5373DB10A4EB60
:101A5000C3030BB1012300E000231A446A4392B28E
:101A60000192A8F1200000F0FF080AEB0500401EDB
:101A700083B23019401E82B251463046FFF7DAFE7B
:101A8000002753E00C2D07D108EB48002A4901EB51
:101A90008000C05D039009E0102D05D1274800EBC0
:101AA0000810C05D039001E0BDE8FF9F4FF0000902
:101AB00036E01098C8B9012000FA09F003990840EF
:101AC00018B1584600F0AAF802E00E9800F0A6F807
:101AD0000298401CC0B20290029890FBF4F104FB03
:101AE0001100C8B9002002901DE0012000FA09F0A1
:101AF0000399084020B15A4651463046FFF75AFF35
:101B0000701C86B20098301AA04205D1009E0AF1DE
:101B100001001FFA80FA06E009F1010000F0FF0958
:101B2000B9F1080FC5DB00BF781C87B20198874266
:101B3000A8DB00BFB8E7000050520008C4560008F8
:101B40002DE9FF4F85B0074691461D46DDE913A6F6
:101B500000200490304606EBD071C1F3470B0024FF
:101B600034E0281B401EC1B20A2001F05BFFB9FB24
:101B7000F0F00A21B0FBF1F201FB12080498A0B9C1
:101B8000681EA04211DDB8F1000F0CD1002004FB4B
:101B90000B71CDE900A6029088B22022129B069913
:101BA000FFF73CFF10E001200490002008F1300115
:101BB000CAB204FB0B71CDE900A6029088B2129B59
:101BC0000699FFF72BFF00BF601CC4B2AC42C8DB14
:101BD00009B0BDE8F08F00000EB510204AF2516147
:101BE00040F2CF12CDE9002102900B4882880423F5
:101BF00065214820FFF7A4FF10204AF2516140F20E
:101C0000CF12CDE900210290034802890423652107
:101C1000E820FFF795FF0EBD7C00002010B50446BC
:101C2000201200F015F8E0B200F012F810BD00002C
:101C300010B5044620210548FFF78BFD204600F033
:101C400007F820210148FFF786FD10BD000C014078
:101C500070B504464FF480711248FFF77AFD0025F5
:101C600017E004211048FFF774FD04F0800020B154
:101C700008210C48FFF76FFD03E008210948FFF732
:101C800068FD04210848FFF766FD6006040E681C25
:101C9000C5B2082DE5DB4FF480710248FFF75BFD0C
:101CA00070BD0000000C01400014014010B500247C
:101CB0000A20FFF79EF9002016490880164908807F
:101CC00016E04FF400711548FFF73AFD01280FD1D7
:101CD000641C05E010480088B0F57A7F00DD06E05E
:101CE0004FF400710D48FFF72BFD0128F2D000BF23
:101CF0000948008840F206418842E2DBB4F57A7F69
:101D000004D904F196000649088002E00020044945
:101D1000088010BD24040040200000200010014075
:101D20001000002010B5002400201249088012493C
:101D3000088016E04FF400711048FFF701FD0128FC
:101D40000FD1641C05E00C480088B0F57A7F00DDF7
:101D500006E04FF400710948FFF7F2FC0128F2D0C9
:101D600000BF05480088B0F57A7FE3DB04494C806A
:101D700010BD00002404004020000020001001409D
:101D8000100000202DE9F04139484088282843DD23
:101D900037494888FEF744FB064635490888FEF770
:101DA0003FFB07463146FEF78BFA05462946284693
:101DB000FEF754FA05464FF07E512846FEF792FB97
:101DC00006D229464FF07E50FEF742FA054605E05E
:101DD0004FF07E512846FEF73BFA05462946254836
:101DE000FEF73CFA07462449FEF738FA0646FEF7A6
:101DF0001CFB04466420B4FBF0F100FB11400528F5
:101E000004D36420B4FBF0F0441C02E06420B4FB73
:101E1000F0F41A490C8002E00020184908801848A4
:101E20000078012812D11548008840F698018842B0
:101E300002DA5520BDE8F0811048008840F61C41C8
:101E4000884201DDAA20F5E71120F3E70B4800885E
:101E500040F61C41884201DA5520EBE7074800882C
:101E600040F6D861884201DDAA20E3E71120E1E7CE
:101E7000100000200000C84200007A440C0000203E
:101E80001400002010B500224FF480512D48FFF7B8
:101E900064FC00224FF400512A48FFF75EFC002248
:101EA0004FF400412748FFF758FC00224FF48041CF
:101EB0002448FFF752FC012211022348FFF74DFC92
:101EC0006420FFF796F8FFF72DFF002280211E48BF
:101ED000FFF743FCFFF756FF04461C4844800022EE
:101EE0004FF480511748FFF738FC01225103154881
:101EF000FFF733FC0122D1031248FFF72EFC00222A
:101F00004FF480410F48FFF728FC1420FFF771F8C9
:101F100000224FF480510B48FFF71FFC00224FF4C2
:101F200000510848FFF719FC00224FF40041054812
:101F3000FFF713FC00224FF480410248FFF70DFC2D
:101F4000204610BD000C0140001001400C00002094
:101F500000BFFEE7704708B54FF4E06000F054F8AA
:101F60001D208DF8000000208DF801008DF8020082
:101F700001208DF80300684600F00EF825208DF84A
:101F8000000001208DF8010000208DF80300684654
:101F900000F002F808BD000070B5002100230F22F8
:101FA000C47804B3154C246804F4E064C4F5E06418
:101FB000210AC1F10403CA40447804FA03F1847889
:101FC0001440214309010E4C0678A155047804F011
:101FD0001F050124AC4005786D11AD0005F1E02529
:101FE000C5F8004109E0047804F01F050124AC4065
:101FF000044D0678761145F8264070BD0CED00E0E2
:1020000000E400E080E100E002490143024A11607F
:10201000704700000000FA050CED00E0704700007A
:102020002DE9F84F1420FEF7E4FF204840884FF6D2
:10203000FF7101EA800A5046FEF7F2F94FF08B413A
:102040000090FEF73DF98346FEF71CFA06464FF076
:102050006632174BFEF772F904460022154BFEF765
:102060006DF98046FEF7F5F91FFA80FA1248A0F8DC
:1020700008A012480088824508DD40F6E440824509
:1020800004DA55200C494881BDE8F88F0C480088D7
:10209000824506DABAF1200F03DD11200649488196
:1020A000F2E7AA200449488100BFEDE74400002080
:1020B00066660A4000408F407C0000202C00002013
:1020C0002A00002010B500F07BF84FF4803000F0BB
:1020D000CFF800F02BF91A4908700846007801285B
:1020E00020D1002000F0B8F8002000F0F3F84FF401
:1020F000806000F0E3F84FF4A0114FF4803000F05E
:10210000FBF8012000F0F2F800BF392000F07EF863
:102110000028FAD0022000F0FDF800BF00F094F88B
:102120000828FBD10121084600F01AF8012144F2E9
:102130007D2000F035F80121024800F021F810BDA3
:10214000150000200200040001460020034A5068E8
:1021500020F44040084350607047000000100240E7
:1021600029B1064A52690243044B5A6104E0034A0A
:1021700052698243014B5A617047000000100240CF
:1021800029B1064AD2690243044BDA6104E0034AEA
:10219000D2698243014BDA617047000000100240AF
:1021A00029B1064A92690243044B9A6104E0034A4A
:1021B00092698243014B9A6170470000001002400F
:1021C0000F48006840F001000D490860084640686B
:1021D0000C4908400A494860084600680A49084016
:1021E000074908600846006820F480200860084617
:1021F000406820F4FE0048604FF41F00886070477C
:10220000001002400000FFF8FFFFF6FE10B5014687
:102210000022002300204A11012A02D1094C236820
:1022200006E0022A02D1074C236A01E0054C636AEA
:1022300001F01F02012494401C400CB1012000E079
:10224000002010BD001002400248406800F00C0061
:10225000704700000010024001460020034A506809
:1022600020F0F0000843506070470000001002406A
:102270001149096821F480310F4A1160114609683B
:1022800021F480211160B0F5803F03D0B0F5802F9C
:102290000ED106E00849096841F48031064A116010
:1022A00007E00549096841F4A021034A116000E0F4
:1022B00000BF00BF70470000001002400146002030
:1022C000034A506820F4E060084350607047000003
:1022D0000010024001460020034A506820F460507C
:1022E00040EAC10050607047001002400149086692
:1022F000704700000000424202460020044B58682C
:1023000020F47C1042EA01031843014B58607047E7
:102310000010024001460020034A506820F00300EC
:1023200008435060704700000010024038B500209C
:1023300000900024002500BF3120FFF767FF05460D
:102340000098401C00900098B0F5A06F01D0002DBF
:10235000F2D03120FFF75AFF08B1012400E0002439
:10236000204638BD704710B500F002F810BD0000DF
:102370000CB50020019000903348006840F4803094
:102380003149086000BF3048006800F40030009018
:102390000198401C0190009818B90198B0F5A06F01
:1023A000F1D12948006800F4003010B101200090FC
:1023B00001E0002000900098012843D123480068E4
:1023C00040F01000214908600846006820F0030032
:1023D00008600846006840F0020008601A4840683B
:1023E000194948600846406848600846406840F41B
:1023F000806048600846406820F47C1048600846C9
:10240000406840F4A81048600846006840F08070BA
:10241000086000BF0C48006800F000700028F9D088
:102420000948406820F003000749486008464068B2
:1024300040F00200486000BF0348406800F00C0014
:102440000828F9D10CBD0000001002400020024015
:102450002DE9F84F06460D4691461F46DDE90AABC9
:102460000020009034462BE0A01B381A401EC1B259
:102470000A2001F0E2FAB9FBF0F00A21B0FBF1F218
:1024800001FB1208009880B9781E3044A0420CDD90
:10249000B8F1000F07D1202005EB4501164A02EBE9
:1024A000C10108550AE00120009008F1300005EB59
:1024B0004501114A02EBC101085500BF601CC4B2BE
:1024C000B819A042D0DC202005EB45010A4A02EBF6
:1024D000C101085505EB4500114601EBC001601C28
:1024E00001F800A005EB4500114601EBC001A01C5E
:1024F00001F800B0BDE8F88F0A0100207047000025
:1025000010B51348006840F0010011490860084602
:102510004068104908400E494860084600680E4966
:1025200008400B4908600846006820F480200860D5
:102530000846406820F4FE0048604FF41F008860A1
:10254000FFF711FF4FF000600449086010BD000064
:10255000001002400000FFF8FFFFF6FE08ED00E06B
:1025600010B50121704800F019F900287ED06F489D
:10257000408840F22621884208DA6D480078401CE5
:102580006B49087000206B49087007E0002068491B
:10259000087068480078401C6649087064480078F4
:1025A000642803DD01206449087000E000BF614831
:1025B0000078642803DD00205F49087000E000BF58
:1025C0005D480078012805D000205C4908705C490E
:1025D000087000E000BF5A480078012836D15948F9
:1025E0000078012829D158484088584909788842FC
:1025F0000BDB5748027801215648FFF7AEF85348E5
:102600000078401C5149087028E0534802780121A5
:102610005048FFF7A2F851480078401C4F49087015
:1026200049484088C0F10A000978884216DA00203B
:10263000464908704949087010E0002201214548C8
:10264000FFF78BF800203F49087007E000220121C6
:102650004048FFF782F800203A4908703748007870
:10266000012849D13E480078012800E057E043D1D5
:10267000354880883B49098888423DDC3A480078E3
:1026800000F007003849087038480978405C00F0CD
:1026900001024FF480512F48FFF75FF83348324969
:1026A0000978405CC0F340024FF400512948FFF71D
:1026B00054F82E482C490978405CC0F380024FF44E
:1026C00000412448FFF749F8284827490978405C29
:1026D000C0F3C0024FF480411E48FFF73EF80020CF
:1026E0002049088020480078401C1F490870204875
:1026F0000078401C1E4908701D480078042804D149
:102700000020174908701A49087016480088401CB4
:102710001449088017480068401C164908600121C8
:10272000014800F02CF810BD0004004044000020D7
:1027300028000020290000204A0000201C00002062
:102740001B0000201A000020500000201F00002065
:102750000A000020000C0140090000201E0000209B
:102760001900002020000020360000202E0000204C
:102770001D00002024000020CA4302827047CA4383
:102780000282704721B1028842F00102028004E017
:1027900002884FF6FE731A400280704730B5024639
:1027A000002000230024158A05EA0103958905EA23
:1027B000010413B10CB1012000E0002030BD1AB1BA
:1027C00083890B43838102E083898B438381704734
:1027D000002202881D4B98420ED01D4B98420BD010
:1027E000B0F1804F08D01B4B984205D01A4B98424D
:1027F00002D01A4B984204D14FF68F731A404B887F
:102800001A43174B984207D0164B984204D04FF604
:10281000FF431A40CB881A4302808B8883850B883C
:1028200003850A4B98420BD0094B984208D00E4BB7
:10283000984205D00D4B984202D00D4B984201D1E1
:102840000B7A03860123838270470000002C01402D
:10285000003401400004004000080040000C00402B
:1028600000100040001400400040014000440140BE
:10287000004801402DE9F0472449088AFDF7D0FDC2
:1028800081461420FEF7B5FB21498888FDF7C8FD75
:10289000824649465046FDF713FD04462046FDF7A3
:1028A000F1FD074600F014FD0546FDF7FEFD044668
:1028B00018492046FDF704FD044617492046FDF758
:1028C00075FC044621464FF07E50FDF7F9FC0446A6
:1028D00012492046FDF7BCFC04462046FDF7A5FD45
:1028E0000F4988800F492046FDF7FCFD04D30E49AF
:1028F0002046FDF701FE04D255200949C880BDE8F5
:10290000F08711200649C88000BFF8E7500000207A
:102910004400002000E076450FCF5B3B33938843B3
:102920007C0000200000704100000C42024650185C
:10293000034B9B89984201DA012070470020FCE795
:102940005000002010B5002280211348FEF705FF3B
:102950000020124908701249087000224FF480517B
:102960001048FEF7FAFE012251030E48FEF7F5FE6D
:102970000122D1030B48FEF7F0FE00224FF4804104
:102980000848FEF7EAFE1420FEF733FB012291030C
:102990000148FEF7E2FE10BD001001401B000020C0
:1029A0001C000020000C01402DE9F04101201D49D0
:1029B00008701D49087000BF102612E0FF24002592
:1029C0000BE0002704F0800000B18827384600F0B3
:1029D00021FA6006040E681CC5B2082DF1DB701EDA
:1029E000C6B2002EEADC4FF4807000F007FA002235
:1029F00002210E48FEF7B1FE0120FEF706FB012280
:102A000002210A48FEF7A9FE09480078012803D1EF
:102A1000054800780128CFD0002000F011F9BDE86A
:102A2000F08100001B0000201C000020000C014071
:102A3000190000202DE9F04101201E4908701E49AF
:102A4000087000BF802000F0D9F9102612E0FF24A2
:102A500000250BE0002704F0800000B188273846ED
:102A600000F0D8F96006040E681CC5B2082DF1DB31
:102A7000701EC6B2002EEADC802000F0BFF90022F2
:102A800002210E48FEF769FE0120FEF7BEFA012280
:102A900002210A48FEF761FE09480078012803D1A7
:102AA000054800780128CDD0002000F0C9F8BDE825
:102AB000F08100001B0000201C000020000C0140E1
:102AC000190000202DE9F04101201D4908701D4921
:102AD000087000BF4FF4807000F090F9102612E0EB
:102AE000FF2400250BE0002704F0800000B18827B8
:102AF000384600F08FF96006040E681CC5B2082D38
:102B0000F1DB701EC6B2002EEADC002202210E4864
:102B1000FEF723FE0120FEF778FA012202210A487F
:102B2000FEF71BFE09480078012803D1054800780C
:102B30000128CFD0002000F083F8BDE8F08100002C
:102B40001B0000201C000020000C01401900002088
:102B500010B50446204600F051F900BF0B4800783C
:102B60000028FBD1002202210948FEF7F6FD0120D2
:102B7000FEF74BFA012202210548FEF7EEFD002088
:102B80000449088001200149087010BD1A00002086
:102B9000000C0140200000202DE9F05F0D46174693
:102BA0001C46A7F1200000F0FF082046E11704EBC7
:102BB000117109116943CDB2002633E0102C05D103
:102BC0001C4800EB081010F805A00CE0202C08D1E0
:102BD00008EB4800184901EB0010A91910F801A0F2
:102BE00001E0BDE8F09F4FF0000916E04FF0000B48
:102BF0000AF0800030B111480088401C0F4908805D
:102C00004FF0880B584600F005F94FEA4A604FEA4A
:102C1000106A09F1010000F0FF09B9F1080FE5DBC6
:102C2000701CC6B2E11704EB1171B6EB211FC5DBB6
:102C300000BFD6E7503A0008504000083800002096
:102C40000121024A1170024A117070471A000020D7
:102C5000190000202DE9FF5F82460E46174600202E
:102C600043490880BB46BBF1100F02DD4FF0200B3B
:102C700001E04FF0100B102003900297D146002086
:102C8000019001203B4908703B49087000BF0020BB
:102C90000090804660E0019C4D46484600F0AEF84A
:102CA00022E0325D5B4641464846FFF775FF601CF7
:102CB000C4B20398284485B22D480088C8280ADB8E
:102CC000C5F5C07188B2FFF743FF284600F096F8BB
:102CD00000202749088000212846FFF727FE012809
:102CE00002D00120009002E0305D0028D9D100BF61
:102CF0002248007801280AD1C5F5C07188B200F0D9
:102D00007DF8012202211E48FEF727FD11E0C5F5DE
:102D1000C07188B200F072F8002202211848FEF754
:102D20001CFD0120FEF771F9012202211448FEF773
:102D300014FD00BF13480078012803D10E48007825
:102D40000128F7D00020FFF77BFF0020084908800A
:102D500008F1010000F0FF08029880459BDB019418
:102D60000098012802D1305D002890D1BDE8FF9F76
:102D7000380000201B0000201C0000204B00002019
:102D8000000C01401900002010B500220121154857
:102D9000FEF7E3FC002230211348FEF7DEFC0022A0
:102DA000C0211248FEF7D9FC10211048FEF7D1FCD3
:102DB00020210E48FEF7CDFC02210A48FEF7CBFC8D
:102DC000012280210848FEF7C8FC0120084908704C
:102DD000084908700020084908703220FEF709F9F8
:102DE00010BD0000000C014000100140000801402F
:102DF0001B0000201C0000203600002070B5044697
:102E0000254604E0002000F005F8681E85B2002D7C
:102E1000F8DC70BD10B5044604F0880028B101222A
:102E200010210A48FEF799FC04E00022102107480F
:102E3000FEF793FC012220210448FEF78EFC0022BD
:102E400020210248FEF789FC10BD00000008014067
:102E50000EB56420ADF804003720ADF80000002066
:102E6000ADF806001020ADF8020069460848FFF7EB
:102E7000AFFC01210648FFF77FFC01221146044800
:102E8000FFF79DFC01210248FFF77CFC0EBD00000E
:102E90000004004010B540F22551094800F039F80F
:102EA00038B1074800F05FF8C4B22146044800F08A
:102EB0005FF840F22551024800F01CF810BD0000F8
:102EC0000038014010B540F22551094800F021F8C2
:102ED00038B1074800F047F8C4B22146044800F072
:102EE00047F840F22551024800F004F810BD0000F8
:102EF0000048004010B50022002340F66A14A142A9
:102F000000D100BF0A1201249440A3B2DC43048024
:102F100010BD70B50246002400230025002040F6B5
:102F20006A16B14200D100BFC1F3421501F01F0380
:102F3000012606FA03F3012D02D19689334006E0FB
:102F4000022D02D1168A334001E0968A33400C12DA
:102F5000012606FA04F41688344013B10CB101209E
:102F600000E0002070BD01468888C0F3080070476B
:102F7000C1F308028280704700B500F007F80249EB
:102F8000088000F037F800BD00000020032012493F
:102F90004872052008726020C8806420C870002034
:102FA00088704FF4C0708880B02088814FF4A07082
:102FB000488140F6AC50088000208873C8730874BC
:102FC000064908700120064908700649087006A0E5
:102FD00007490860012070476A00002009000020AE
:102FE0000A000020080000204147303300000000A4
:102FF0000400002014480088144908801448407ACE
:1030000048801348007A88801148C088C8801048DA
:10301000C07808810E48807848810D488088888172
:103020000B488089C8810A4840890882084800887E
:1030300048820748807B88820548C07BC882044854
:10304000007C088370470000000000205000002032
:103050006A00002000BFFEE72DE9FC5F4FF4FA5B39
:10306000012280211F48FEF778FB6420FDF7C1FF95
:103070001D4800884FF6FF7101EA800A5046FDF7AF
:10308000CFF94FF08B410090FDF71AF90190FDF751
:10309000F9F980464FF06632144BFDF74FF90646BA
:1030A0000022134BFDF74AF90446FDF7D2F91FFA47
:1030B00080FA1048A0F800A0ABF57A70504504DD06
:1030C00055200C494880BDE8FC9F0BF57A7082457D
:1030D00003DDAA2007494880F5E71120054948800B
:1030E00000BFF0E7001001404400002066660A407F
:1030F00000408F407C00002070B50446002517E09A
:1031000004210D48FEF725FB04F0800020B10821C2
:103110000A48FEF720FB03E008210848FEF719FBE8
:1031200004210548FEF717FB6006040E681CC5B2B3
:10313000082DE5DB70BD000000140140000C0140CB
:103140002DE9F0414F1E00EBC7010446D1E9000113
:1031500015461E4637F006020DD02A463346FDF7C7
:10316000EDF87F1E04EBC703D3E90023FDF772FAE5
:1031700037F00602F1D1022F25D0042F13D0062FED
:1031800018BFBDE8F0812A463346FDF7D7F8D4E9E9
:103190000A23FDF75FFA2A463346FDF7CFF8D4E954
:1031A0000823FDF757FA2A463346FDF7C7F8D4E956
:1031B0000623FDF74FFA2A463346FDF7BFF8D4E958
:1031C0000423FDF747FA2A463346FDF7B7F8D4E95A
:1031D0000223FDF73FFA2A463346FDF7AFF8D4E95C
:1031E0000023BDE8F041FDF735BA00000022134688
:1031F00010460149FDF7D5BA0000F03F0122FDF766
:103200003FBB0022134610461146FDF7CABA02E042
:1032100008C8121F08C1002AFAD170477047002061
:1032200001E001C1121F002AFBD17047014908606B
:10323000704700004C00002070B50024002512E00B
:1032400004210B48FEF785FA6006040E8021094828
:10325000FEF776FA08B1601CC4B204210448FEF7F8
:103260007AFA681CC5B2082DEADB204670BD000062
:1032700000140140000C01402DE9F04780460D4646
:1032800016461F46DDF820904FF400710F48FEF7F8
:1032900060FA0320FFF730FF4046FFF72DFF284676
:1032A000FFF72AFF3046FFF727FF002404E0FFF76F
:1032B000C3FF3855601CC4B24C45F8DB4FF40071B5
:1032C0000248FEF748FABDE8F0870000000C014014
:1032D0002DE9F04DC84A002490B0914205DA21F062
:1032E0000043934201D805D120B110B0BDE8F04DA4
:1032F000FFF784BFB1F5801F1BDA53EA000209D043
:10330000002911DA0120FFF791FF10B0BDE8F04D60
:10331000FFF777BF0220FFF789FFFFF767FF10B0C5
:1033200081F00041BDE8F08D6FF035043622FDF7E5
:10333000A7FA04EB2152C1F31308B049A2F2FF33FC
:10334000414401F4801282F07F6103EB225281F04C
:103350004051009241EA08010022A94BFDF71BFAF7
:10336000044608F10200A74EC0F313000D467E4448
:10337000032867D2D6E900232046FDF7A9FA1ED11B
:103380000098002802BFD6E9000110B0BDE8F08D1A
:10339000FDF78DFA07460C469B4A9C4BFCF7CEFF87
:1033A00006460D469A4A9B4B38462146FCF7C6FF17
:1033B00010B032462B46BDE8F04DFDF74BB94FF04B
:1033C0005532954B20462946FCF7B8FF0022934B17
:1033D000FDF7E4F906460F4622462B4610461946ED
:1033E000FCF7ACFF32463B46FCF7A8FF06460098C8
:1033F0000F46F0B1FDF75BFA80468A46824A834B5E
:10340000FCF79CFF32463B46FDF7C8F922462B46A7
:10341000FDF7C1F905460C467D4A7E4B40465146B4
:10342000FCF78CFF10B02A462346BDE8F04DFDF7AF
:10343000B2B90B4610B0324620462946BDE8F04DE1
:10344000FDF7A9B900224FF080432046FDF702F9AD
:1034500002460B4620462946FDF7A3F906460F46CD
:103460000098FDF724FACDE9040132463B461046A8
:103470003946FCF763FF0C9069480C9A4044019070
:1034800009910B461046FCF759FF824602466548F3
:103490008B46C8F151080B4608F5D728032178441C
:1034A000FFF74EFE52465B46FCF748FF0A905E4827
:1034B0000D9152465B4604217844FFF741FE099B7B
:1034C0000C9AFCF73BFF844601980D9B40EA0808E4
:1034D00060460A9AFDF7BEF883460891B8F1000FDE
:1034E0004EDD4FF0FF3220462946FDF7C9F922464E
:1034F0002B46FCF723FF804600988A4660B3DDE93F
:103500000401414A414BFCF719FF099100905A46CA
:1035100040465146089BFDF79DF832463B46FCF776
:103520000DFF099B009AFDF795F842465346FDF7BB
:1035300035F922462B46FDF72EF904460D46DDE906
:103540000401334A334BFCF7F9FE10B022462B46F8
:10355000BDE8F04DFDF71FB95A464046089BFDF700
:1035600079F832463B46FCF7E9FE42465346FDF702
:1035700015F910B022462B46BDE8F04DFDF70EB907
:10358000009840B3DDE904011F4A204BFCF7D6FE4A
:1035900080468A465A4620462946089BFDF7FBF896
:1035A00032463B46FCF7CAFE42465346FDF7F3F867
:1035B00022462B46FDF7EFF804460D46DDE90401EF
:1035C000134A144BFCF7BAFE10B022462B46BDE856
:1035D000F04DFDF7E0B80B465A4620462946FDF768
:1035E000DAF832463B46FCF7A9FE10B022462B46DD
:1035F000BDE8F04DFDF7D2B80000F07F645F090030
:103600000000F03FFEA30000763C7935EF39EA3D3B
:103610000000E0FE422EE63F5555D53F0000E03F5A
:1036200086EBF9FF96A2000094A200001CB5FEF7FD
:10363000D7F8FEF7E3F810B10120BB490870FEF798
:1036400035FBFFF799FC0020FDF7DAFB00224FF471
:103650000051B648FEF781F864E100BFFEF7CEF8EE
:103660000028F9D000224FF48041B048FEF775F8E9
:1036700000224FF48061AE48FEF76FF8FFF7FAF8CA
:10368000FFF7EAFCFEF7FEFB0120FDF7B9FB002582
:1036900029E0A848008841F28831884223DD0020D3
:1036A000A4490880FFF7E6F8112813D001229102FF
:1036B0009F48FEF752F84AF251604FF478419EA3BA
:1036C0001022CDE900107621E820FDF7ABFCFEF7D3
:1036D000CFF8C3E7FEF7A4FCFEF77EFA97484089CF
:1036E000112800D10125964800780128D1D1002D5C
:1036F000CFD018219348FCF73EFD93A19148FCF7E9
:103700004CFD9048FCF742FDC6B256206D21CDE934
:1037100000108A480288042300213046FEF798FEF4
:10372000182188481830FCF726FD8AA185481830F2
:10373000FCF733FD83481830FCF728FDC6B246205D
:103740007021CDE900108648008882B2042301214F
:103750003046FEF77DFE18217A483030FCF70BFD2D
:1037600080A178483030FCF718FD76483030FCF7FF
:103770000DFDC6B248207521CDE900107C480288B5
:10378000042302213046FEF763FE18216D48903075
:10379000FCF7F1FC77A16B489030FCF7FEFC694820
:1037A0009030FCF7F3FCC6B256206D21CDE9001035
:1037B00062480289042306213046FEF749FE18219B
:1037C0006048A830FCF7D7FC6DA15E48A830FCF734
:1037D000E4FC5C48A830FCF7D9FCC6B243207E214B
:1037E000CDE9001055488288032307213046FEF7B3
:1037F0002FFEFFF7C9FA00BF182264A10020FFF7CF
:1038000029FA402403E0FFF7CFF8601EC4B2002C71
:10381000F9DC402403E0FFF70DF9601EC4B2002C70
:10382000F9DCC020FFF7EAFA402403E0FFF74AF989
:10383000601EC4B2002CF9DCC020FFF7DFFA1822AA
:1038400052A10020FFF706FA18223E491020FFF788
:1038500001FA18223B4918311020FFF7FBF9182212
:10386000384930311020FFF7F5F9182235499031E9
:103870001020FFF7EFF918223249A8311020FFF786
:10388000E9F9182241A10020FFF7E4F9182245497F
:103890000020FFF7DFF918223CA10020FFF7DAF93A
:1038A000182241A16E20FFF7D5F91822434801687C
:1038B0008020FFF7CFF9182241A10020FFF7CAF9B5
:1038C000182243A10020FFF7C5F9182245A10020C6
:1038D000FFF7C0F901204E49087018224DA10020C1
:1038E000FFF7B8F900204A49087015480078012808
:1038F00082D0FFF727F80CE00E48008840F6C4118C
:10390000884206DD00200B490880FEF7B3FFFEF772
:1039100087FBFDF773FF0128EED0012291020448D6
:10392000FDF71BFF99E60000140000200010014085
:10393000000C0140200000204F4646007C00002083
:103940004A0000200A01002056485F546573743A0B
:10395000202000004361705F546573743A200000BA
:103960003C0000204D4F544F5F546573743A000083
:103970000C0000205241595F546573743A200000D6
:10398000544D5F546573743A20200000202020209D
:103990002020202020202020202020202020202027
:1039A0002020000078D700085072696E742054659A
:1039B0007374204E6F7465730000000004000020D3
:1039C00053706565643A2036326D6D2F73000000C8
:1039D00056657273696F6E733A2032525F56345F68
:1039E0003300000020202020202020202020202024
:1039F00020202020202020202020202020202020C7
:103A00002020202020202020202020200000000036
:103A10004B0000207C7C7C7C20204C414E5F45721A
:103A2000726F720010B50246012000E050430B0097
:103A3000A1F10104E1B2F9D110BD10B50246012097
:103A400000E050430B00A1F10104E1B2F9D110BD37
:103A50000000000000000000000000000000000066
:103A600000000010101010101010000018180000B6
:103A70000012362448000000000000000000000092
:103A8000000000242424FE484848FE48484800001E
:103A90000000103854545030181414545438101076
:103AA00000000044A4A8A8A8541A2A2A2A44000006
:103AB00000000030484848506EA494888976000081
:103AC00000606020C0000000000000000000000056
:103AD000000204080810101010101008080402005A
:103AE00000402010100808080808081010204000A6
:103AF000000000001010D63838D61010000000006A
:103B00000000000010101010FE1010101000000037
:103B1000000000000000000000000000606020C005
:103B200000000000000000007F0000000000000016
:103B300000000000000000000000000060600000C5
:103B40000000010202040408081010202040400078
:103B5000000000182442424242424242241800001F
:103B6000000000107010101010101010107C0000D9
:103B70000000003C4242420404081020427E000043
:103B80000000003C42420418040202424438000093
:103B9000000000040C14242444447E04041E00008D
:103BA0000000007E40404058640202424438000059
:103BB0000000001C24404058644242422418000087
:103BC0000000007E4444080810101010101000007F
:103BD0000000003C4242422418244242423C000081
:103BE0000000001824424242261A02022438000033
:103BF0000000000000001818000000001818000065
:103C00000000000000000010000000000010102064
:103C100000000002040810204020100804020000E8
:103C2000000000000000FE000000FE000000000098
:103C3000000000402010080402040810204000008A
:103C40000000003C4242620204080800181800000C
:103C500000000038445AAAAAAAAAB4424438000074
:103C60000000001010182828243C444242E70000BD
:103C7000000000F8444444784442424244F80000C2
:103C80000000003E42428080808080424438000034
:103C9000000000F8444242424242424244F80000DE
:103CA000000000FC424848784848404242FC00007E
:103CB000000000FC424848784848404040E000008E
:103CC0000000003C44448080808E844444380000DE
:103CD000000000E7424242427E42424242E7000088
:103CE0000000007C1010101010101010107C00004C
:103CF0000000003E0808080808080808080888F0BE
:103D0000000000EE444850705048484444EE000023
:103D1000000000E0404040404040404042FE000083
:103D2000000000EE6C6C6C6C5454545454D600007B
:103D3000000000C7626252524A4A4A4646E2000008
:103D400000000038448282828282828244380000ED
:103D5000000000FC424242427C40404040E0000003
:103D600000000038448282828282B2CA4C38060047
:103D7000000000FC4242427C4848444442E30000C8
:103D80000000003E4242402018040242427C0000F3
:103D9000000000FE921010101010101010380000DB
:103DA000000000E74242424242424242423C00009E
:103DB000000000E742424424242828181010000084
:103DC000000000D692929292AAAA6C444444000049
:103DD000000000E7422424181818242442E70000B9
:103DE000000000EE44442828101010101038000085
:103DF0000000007E840408081020204242FC0000DD
:103E0000001E1010101010101010101010101E00B6
:103E10000000404020201010100808040404020292
:103E20000078080808080808080808080808780042
:103E3000001C220000000000000000000000000044
:103E4000000000000000000000000000000000FF73
:103E500000601000000000000000000000000000F2
:103E6000000000000000003C421E2242423F0000D1
:103E7000000000C040404058644242426458000084
:103E8000000000000000001C22404040221C0000F6
:103E9000000000060202021E22424242261B0000CF
:103EA000000000000000003C427E4040423C000018
:103EB0000000000F1110107E10101010107C000078
:103EC000000000000000003E444438403C42423CB8
:103ED000000000C04040405C6242424242E70000B5
:103EE000000000303000007010101010107C000036
:103EF0000000000C0C00001C0404040404044478BA
:103F0000000000C04040404E4850684844EE000069
:103F1000000000701010101010101010107C000025
:103F200000000000000000FE4949494949ED000039
:103F300000000000000000DC6242424242E7000054
:103F4000000000000000003C42424242423C0000AF
:103F500000000000000000D864424242447840E083
:103F6000000000000000001E22424242221E020702
:103F700000000000000000EE3220202020F80000A9
:103F8000000000000000003E42403C02427C000075
:103F9000000000000010107C10101010100C000029
:103FA00000000000000000C642424242463B0000C2
:103FB00000000000000000E7422424281010000048
:103FC00000000000000000D79292AAAA444400001A
:103FD000000000000000006E24181818247600006D
:103FE00000000000000000E742242428181010E020
:103FF000000000000000007E44081010227E000037
:104000000003040404040408040404040404030076
:10401000FFFFFFFFFFFFFFFFFFFFFFFFFFFFFFFFB0
:104020000060101010101008101010101010600018
:10403000304C4300000000000000000000000000C1
:104040000000000000000000000000000000000070
:104050000000000000000000000000000000000060
:104060000000000000000000000000000000000050
:104070000000000000000000000000000000000040
:104080000000000000000000060006000600060018
:104090000600060006000200040004000400000000
:1040A00000000000060006000600000000000000FE
:1040B00000000000066006600CC01980110022009C
:1040C00000000000000000000000000000000000F0
:1040D00000000000000000000000000000000000E0
:1040E00000000000000000000840084008400840B0
:1040F0007FE07FE0104010801080108010807FE013
:104100007FE02080208020802080000000000000D0
:10411000000000000000020002000F801AC032C040
:1041200033C032001A000E0007000380038002C073
:1041300032C03AC032C012800F00020002000000FC
:10414000000000000000000070805080890089009D
:1041500089008A008A005C0075C005400A200A2098
:10416000122012201220214021C000000000000077
:1041700000000000000000001C0036003600360081
:1041800036003600340019E038805880CC80CC806E
:10419000C680C700C31063903CE000000000000030
:1041A0000000000030003800080008001000200067
:1041B00000000000000000000000000000000000FF
:1041C00000000000000000000000000000000000EF
:1041D00000000000002000400080010001000200FB
:1041E00002000400040004000400040004000400B1
:1041F00002000200010001000080004000200000D9
:10420000000000004000200010000800080004002A
:10421000040002000200020002000200020002008C
:104220000400040008000800100020004000000006
:104230000000000000000000000000000200030079
:104240000200623072F00B800F807AF06230020060
:10425000020002000000000000000000000000005A
:10426000000000000000000000000000000002004C
:1042700002000200020002007FF0020002000200C1
:10428000020002000000000000000000000000002A
:10429000000000000000000000000000000000001E
:1042A000000000000000000000000000000000000E
:1042B0000000000030003800080008001000200056
:1042C00000000000000000000000000000000000EE
:1042D00000000000000000007FE00000000000007F
:1042E00000000000000000000000000000000000CE
:1042F00000000000000000000000000000000000BE
:1043000000000000000000000000000000000000AD
:1043100000000000380038003800000000000000F5
:104320000000000000200060004000C0008000800D
:104330000100010002000200060004000400080061
:104340000800100010003000200060004000000055
:10435000000000000000000000000F00198030C0C5
:1043600030C060606060606060606060606060601D
:10437000606030C030C019800F00000000000000F5
:104380000000000000000000000002003E000600E7
:1043900006000600060006000600060006000600ED
:1043A00006000600060006003FC0000000000000F6
:1043B000000000000000000000001F00218040C03D
:1043C00060C060C000C000800180030006000400DF
:1043D00008001040204060407FC000000000000046
:1043E000000000000000000000001E00630061806B
:1043F00061800180018003000E000180008000C008
:1044000000C060C060C061801F00000000000000AC
:104410000000000000000000000001800180038017
:1044200005800580098011801180218041807FF006
:10443000018001800180018007E000000000000091
:10444000000000000000000000003FC0200020002D
:104450002000200020002F00318020C000C000C0BC
:1044600060C060C0418021801F000000000000008B
:1044700000000000000000000000078018C030C0ED
:10448000300020006000678068C07060606060601D
:1044900060602060304018C00F0000000000000085
:1044A000000000000000000000001FE0306020401D
:1044B0002080008000800100010002000200020054
:1044C00006000600060006000600000000000000CE
:1044D000000000000000000000001F8030C060608D
:1044E00060606060304038C00F00138030C0606092
:1044F00060606060606030C00F80000000000000FD
:10450000000000000000000000000F00308030C0FC
:10451000604060606060606060E031601E6000600C
:1045200000C000C0308031801E000000000000008C
:10453000000000000000000000000000000000007B
:104540000000000007000700070000000000000056
:104550000000000007000700070000000000000046
:10456000000000000000000000000000000000004B
:10457000000000000600060000000000000000002F
:104580000000000000000600060002000400040015
:10459000000000000000000000200040008001003A
:1045A00002000400080010002000100008000400B1
:1045B0000200010000800040002000000000000018
:1045C00000000000000000000000000000000000EB
:1045D000000000007FE00000000000007FE000001D
:1045E00000000000000000000000000000000000CB
:1045F000000000000000000020001000080004007F
:104600000200010000800040002000400080010006
:10461000020004000800100020000000000000005C
:104620000000000000000000000007C018602030FB
:1046300020303030303000E0018002000200020003
:104640000000000007000700070000000000000055
:104650000000000000000000070018C0304033A038
:1046600026A066A065A06D206D206D206D206D4098
:1046700027803020304018C00F00000000000000EC
:1046800000000000000000000000060006000A0014
:104690000B00090009001100118010801F8020C04C
:1046A00020C0204040404060F0F0000000000000CA
:1046B000000000000000000000007F0031C030C09A
:1046C00030C030C030C031803F0030C0304030603A
:1046D00030603060306030C07F800000000000003B
:1046E0000000000000000000000007C018C030609B
:1046F00030202020600060006000600060006000EA
:1047000060203020304018C00F0000000000000082
:1047100000000000000000000000FE00318030C0FA
:1047200030C03060306030603060306030603060A9
:10473000306030C030C03180FE000000000000005A
:1047400000000000000000000000FFC060C060200A
:1047500060206000610061007F0061006100610015
:104760006000602060206040FFC00000000000008A
:1047700000000000000000000000FFC060C06020DA
:1047800060206000610061007F00610061006100E5
:104790006000600060006000F800000000000000A1
:1047A000000000000000000000000F0018803040F2
:1047B00030402040600060006000600063F060C036
:1047C00060C030C030C018C00F0000000000000002
:1047D00000000000000000000000F0F06060606079
:1047E00060606060606060607FE06060606060602A
:1047F0006060606060606060F0F0000000000000D9
:10480000000000000000000000003FC0060006009D
:104810000600060006000600060006000600060068
:1048200006000600060006003FC000000000000071
:10483000000000000000000000001FE00300030073
:104840000300030003000300030003000300030050
:1048500003000300030003000300630066003C0044
:1048600000000000000000000000F3C06180630051
:104870006200640068006C007400760062006300EF
:1048800061006180608060C0F1E000000000000015
:1048900000000000000000000000F8006000600060
:1048A0006000600060006000600060006000600008
:1048B0006000602060206040FFC000000000000039
:1048C00000000000000000000000E0E061C061C0E6
:1048D00071C071C072C072C052C05AC05AC05CC0B0
:1048E0004CC04CC04CC048C0E1E0000000000000DB
:1048F0000000000000000000000071F0304038406F
:1049000038402C402C402640264022402340214065
:1049100021C021C020C020C0F840000000000000DD
:10492000000000000000000000000F00198030C0EF
:1049300030406060606060606060606060606060C7
:104940006060304030C019800F000000000000009F
:1049500000000000000000000000FF0060C0606078
:10496000606060606060606061C07F0060006000E7
:104970006000600060006000F800000000000000BF
:10498000000000000000000000000F00198030C08F
:104990003040606060606060606060606060606067
:1049A0006E60324033C019800F0001E000C000008B
:1049B00000000000000000000000FF8060C0606098
:1049C00060606060606060C07F00620063006100E2
:1049D000618060C060C06060F07000000000000096
:1049E000000000000000000000001F4030C06040D8
:1049F0006040600070003C001F0007C001C000E084
:104A000040604060606030C00F8000000000000027
:104A1000000000000000000000007FE0462086103B
:104A200086100600060006000600060006000600C6
:104A300006000600060006001F80000000000000BF
:104A40000000000000000000000078E0304030402E
:104A500030403040304030403040304030403040D6
:104A600030403040304018800F000000000000004F
:104A700000000000000000000000F0E06040208026
:104A800020803080308011001100190019000A00C8
:104A90000A000E000C0004000400000000000000EA
:104AA00000000000000000000000EF7046204220DF
:104AB0006220622026402640274027403940398026
:104AC0001980198011801100110000000000000001
:104AD0000000000000000000000079E0308010803D
:104AE000188009000D0006000400060006000B00F7
:104AF00009001180108020C071E00000000000005B
:104B000000000000000000000000F0F060202040E5
:104B10003040108018801D000D000E0006000600B9
:104B200006000600060006001F80000000000000CE
:104B3000000000000000000000003FE0304060C0C6
:104B4000408001800100020002000400040008000F
:104B500018001020302020407FC00000000000001E
:104B60000000000007C0040004000400040004006A
:104B70000400040004000400040004000400040015
:104B800004000400040004000400040007C0000046
:104B900000000000000000002000200010001000B5
:104BA00008000800080004000400020002000300DE
:104BB0000100010000800080004000400040002013
:104BC000000000003E00020002000200020002009D
:104BD00002000200020002000200020002000200C5
:104BE0000200020002000200020002003E0000007B
:104BF0000000060009001080000000000000000016
:104C000000000000000000000000000000000000A4
:104C10000000000000000000000000000000000094
:104C20000000000000000000000000000000000084
:104C30000000000000000000000000000000000074
:104C40000000000000000000000000000000FFF075
:104C50000000000018000600000000000000000036
:104C60000000000000000000000000000000000044
:104C70000000000000000000000000000000000034
:104C80000000000000000000000000000000000024
:104C9000000000000F8030C030C000C007C038C026
:104CA00070C060C060C071D03E70000000000000A5
:104CB0000000000000000000100070003000300014
:104CC0003000300033803CC038603060306030608D
:104CD00030603060304038C02780000000000000A5
:104CE00000000000000000000000000000000000C4
:104CF000000000000F0031803180618060006000A2
:104D000060006040304030800F0000000000000074
:104D10000000000000000000004003C000C000C010
:104D200000C000C01EC031C030C060C060C060C0E4
:104D300060C060C020C031E01E80000000000000A4
:104D40000000000000000000000000000000000063
:104D500000000000078018C01040306030603FE065
:104D600030003000182018400780000000000000CC
:104D70000000000000000000000003C006600C609E
:104D80000C000C007F800C000C000C000C000C00D0
:104D90000C000C000C000C003F8000000000000024
:104DA0000000000000000000000000000000000003
:104DB000000000000FE01B603180318031801980DD
:104DC0001F0030003F0033C060C060C071C01F00D2
:104DD00000000000000000001000700030003000F3
:104DE00030003000378038C030C030C030C030C0F4
:104DF00030C030C030C030C079E00000000000009A
:104E00000000000000000000000006000600000096
:104E1000000002003E000600060006000600060034
:104E200006000600060006003FC00000000000006B
:104E3000000000000000000000000380038000006C
:104E4000000000800F8001800180018001800180CE
:104E500001800180018001800180018033003E00DB
:104E60000000000000000000100070003000300062
:104E70003000300031C031003100320036003A00DD
:104E800031003180308030C079E000000000000047
:104E9000000000000000000002003E0006000600C6
:104EA00006000600060006000600060006000600D2
:104EB00006000600060006003FC0000000000000DB
:104EC00000000000000000000000000000000000E2
:104ED00000000000ECE07760666066606660666017
:104EE0006660666066606660FFF0000000000000BB
:104EF00000000000000000000000000000000000B2
:104F000000000000778038C030C030C030C030C0F2
:104F100030C030C030C030C079E000000000000078
:104F20000000000000000000000000000000000081
:104F3000000000000F00198030C060606060606099
:104F40006060606030C030C00F00000000000000F2
:104F50000000000000000000000000000000000051
:104F600000000000778038C0306030603060306012
:104F70003060306030C038C03780300030007C0096
:104F80000000000000000000000000000000000021
:104F9000000000001E4031C030C060C060C060C072
:104FA00060C060C020C031C01EC000C000C003E0AF
:104FB00000000000000000000000000000000000F1
:104FC00000000000F9C01A601C60180018001800EA
:104FD0001800180018001800FF0000000000000072
:104FE00000000000000000000000000000000000C1
:104FF000000000000FC038C0304030401C000F00DF
:1050000003C020C020C031C03F800000000000006D
:105010000000000000000000000000000400040088
:105020000C000C007F800C000C000C000C000C002D
:105030000C000C000C400C40078000000000000039
:105040000000000000000000000000000000000060
:105050000000104071C030C030C030C030C030C01F
:1050600030C030C030C039E01E80000000000000B9
:105070000000000000000000000000000000000030
:105080000000000078E03040108010801880090097
:105090000D000D00060006000400000000000000E6
:1050A0000000000000000000000000000000000000
:1050B00000000000EF704620622026402640374066
:1050C000398019801980198010000000000000004C
:1050D00000000000000000000000000000000000D0
:1050E000000000003DE0188008800D00060006006A
:1050F00007000900108010C079E0000000000000E7
:10510000000000000000000000000000000000009F
:105110000000000079E01080108010800900090074
:105120000D000600060006000400040024003800FC
:10513000000000000000000000000000000000006F
:10514000000000003F8021802300220006000400B0
:105150000C001840104030C03F80000000000000EC
:105160000000000000C0010001000100010001007A
:105170000100010001000200040002000100010022
:1051800001000100010001000100010000C0000059
:1051900002000200020002000200020002000200FF
:1051A00002000200020002000200020002000200EF
:1051B00002000200020002000200020002000200DF
:1051C0000000000030000800080008000800080087
:1051D000080008000800040002000400080008009D
:1051E000080008000800080008000800300000005F
:1051F000000038004420432001C0000000000000EF
:10520000000000000000000000000000000000009E
:10521000000000000000000000000000000000008E
:10522000000000000000000000000000000000007E
:10523000000000000000000000000000000000006E
:10524000000000000000000000000000000000005E
:105250000000000000000000000000000000040446
:10526000040404000004000014140A0000000000FC
:105270000000000000000A0A1F0A0A1F0A0A0000B4
:1052800000040E1505060C14150E0400000012157E
:105290000D152E2C2A1200000000040A0A361515DE
:1052A00029160000020201000000000000000000BA
:1052B0001008080404040404080810000204040888
:1052C000080808080404020000000004150E0E156A
:1052D0000400000000000008083E0808000000006C
:1052E00000000000000000000202010000000000B9
:1052F000003F00000000000000000000000000006F
:10530000000200000020101008080404020201003E
:1053100000000E1111111111110E00000000040601
:1053200004040404040E000000000E11110804021D
:10533000011F000000000E11100C1010110E0000D3
:105340000000080C0C0A091F081C000000001F01C7
:10535000010F1110110E000000000C12010D1311AD
:10536000110E000000001E100808040404040000D0
:1053700000000E11110E1111110E000000000E118F
:1053800011191610090600000000000004000000BA
:1053900000040000000000000004000000040400FD
:1053A00000001008040202040810000000000000C1
:1053B0003F003F0000000000000002040810100839
:1053C0000402000000000E11110804040004000093
:1053D00000001C22292D2D1D221C000000000404A9
:1053E0000C0A0A1E1233000000000F12120E1212D5
:1053F000120F000000001E1101010101110E00003A
:1054000000000F1212121212120F000000001F12E1
:105410000A0E0A02121F000000001F120A0E0A02E2
:105420000207000000001C1201013911120C0000DB
:1054300000003312121E12121233000000001F046B
:1054400004040404041F000000003E0808080808C3
:1054500008080907000037120A060A12123700006E
:105460000000070202020202223F000000003B1B74
:105470001B1B15151535000000003B1216161A1AD5
:105480001217000000000E1111111111110E000071
:1054900000000F12120E02020207000000000E119F
:1054A00011111117190E180000000F12120E0A1216
:1054B0001237000000001E1101060810110F000035
:1054C00000001F1504040404040E00000000331241
:1054D00012121212120C000000003312120A0A0CEF
:1054E000040400000000151515150E0A0A0A000034
:1054F00000001B0A0A04040A0A1B000000001B0A21
:105500000A0A0404040E000000001F090804040233
:10551000121F00001C0404040404040404041C00FE
:105520000002020404040808081010000E0808080D
:105530000808080808080E00040A0000000000001F
:105540000000000000000000000000000000003F1C
:105550000204000000000000000000000000000045
:10556000000C121C123C000000030202020E121278
:10557000120E000000000000001C1202120C0000BD
:1055800000181010101C1212123C00000000000045
:10559000000C121E021C000000182404041E040447
:1055A000041E000000000000003C120C021C221C23
:1055B00000030202020E121212370000000404005F
:1055C00000060404040E000000080800000C08088F
:1055D0000808080700030202021A0A060A1300005C
:1055E0000007040404040404041F00000000000079
:1055F000000F15151515000000000000000F121215
:105600001237000000000000000C1212120C000003
:1056100000000000000F1212120E0207000000002E
:10562000001C1212121C103800000000001B0602A1
:105630000207000000000000001E020C101E000007
:1056400000000004041E0404041C0000000000000C
:10565000001B1212123C000000000000001B0A0A8E
:1056600004040000000000000015150E0A0A0000E6
:1056700000000000001B0A040A1B000000000000DC
:10568000003312120C08040300000000001E08047E
:10569000041E000018080808080C0808080818006C
:1056A0000808080808080808080808080604040488
:1056B00004080404040406001609000000000000A9
:1056C00000000000000000000000000000000000DA
:1056D0000000000000000008080808080808000092
:1056E0001818000000486C241200000000000000A0
:1056F000000000000000002424247F1212127F12F8
:10570000121200000000081C2A2A0A0C1828282A55
:105710002A1C080800000022251515152A58545483
:10572000542200000000000C1212120A76252911E2
:10573000916E000000060604030000000000000057
:105740000000000000402010100808080808081099
:10575000102040000002040808101010101010085B
:10576000080402000000000008086B1C1C6B0808FD
:105770000000000000000000080808087F08080872
:105780000800000000000000000000000000000011
:10579000060604030000000000000000FE000000F8
:1057A00000000000000000000000000000000000F9
:1057B0000606000000008040402020101008080469
:1057C00004020200000000182442424242424242C7
:1057D00024180000000000080E080808080808083F
:1057E000083E00000000003C424242202010080415
:1057F000427E00000000003C42422018204040420F
:10580000221C0000000000203028242422227E20B8
:10581000207800000000007E0202021A264040426A
:10582000221C0000000000382402021A26424242D4
:10583000241800000000007E22221010080808082A
:10584000080800000000003C424242241824424262
:10585000423C00000000001824424242645840408C
:10586000241C0000000000000000181800000000C8
:1058700018180000000000000000000800000000F0
:10588000000808040000004020100804020408106A
:10589000204000000000000000007F0000007F00AA
:1058A0000000000000000002040810204020100842
:1058B000040200000000003C42424640201010005C
:1058C000181800000000001C225A555555552D424D
:1058D000221C00000000000808181414243C224276
:1058E00042E700000000001F2222221E2242424204
:1058F000221F00000000007C424201010101014220
:10590000221C00000000001F22424242424242424A
:10591000221F00000000003F4212121E121202421B
:10592000423F00000000003F4212121E121202020B
:10593000020700000000003C222201010171212227
:10594000221C0000000000E7424242427E424242E6
:1059500042E700000000003E0808080808080808A0
:10596000083E00000000007C1010101010101010F5
:105970001010110F0000007722120A0E0A121222D4
:105980002277000000000007020202020202020267
:10599000427F000000000077363636362A2A2A2A4F
:1059A0002A6B0000000000E346464A4A5252526207
:1059B000624700000000001C224141414141414139
:1059C000221C00000000003F424242423E0202020E
:1059D000020700000000001C2241414141414D539B
:1059E000321C60000000003F4242423E121222225E
:1059F00042C700000000007C4242020418204042DE
:105A0000423E00000000007F490808080808080816
:105A1000081C0000000000E742424242424242426B
:105A2000423C0000000000E74242222424141418E3
:105A3000080800000000006B4949494955553622C5
:105A400022220000000000E7422424181818242411
:105A500042E700000000007722221414080808081A
:105A6000081C00000000007E2120101008040442E1
:105A7000423F0000007808080808080808080808DD
:105A8000080878000000020204040808081010202A
:105A900020204040001E1010101010101010101088
:105AA00010101E000038440000000000000000003C
:105AB00000000000000000000000000000000000E6
:105AC000000000FF000608000000000000000000C9
:105AD00000000000000000000000003C427844424A
